{
  "address": "0xB4F0C14E363fd8a2060619B1CF455EbA95CBcBf5",
  "abi": [
    {
      "inputs": [
        {
          "internalType": "address",
          "name": "priceFeedAddress",
          "type": "address"
        }
      ],
      "stateMutability": "nonpayable",
      "type": "constructor"
    },
    {
      "inputs": [],
      "name": "NotOwner",
      "type": "error"
    },
    {
      "stateMutability": "payable",
      "type": "fallback"
    },
    {
      "inputs": [
        {
          "internalType": "address",
          "name": "",
          "type": "address"
        }
      ],
      "name": "addressToAmountFunded",
      "outputs": [
        {
          "internalType": "uint256",
          "name": "",
          "type": "uint256"
        }
      ],
      "stateMutability": "view",
      "type": "function"
    },
    {
      "inputs": [],
      "name": "fund",
      "outputs": [],
      "stateMutability": "payable",
      "type": "function"
    },
    {
      "inputs": [
        {
          "internalType": "uint256",
          "name": "",
          "type": "uint256"
        }
      ],
      "name": "funders",
      "outputs": [
        {
          "internalType": "address",
          "name": "",
          "type": "address"
        }
      ],
      "stateMutability": "view",
      "type": "function"
    },
    {
      "inputs": [],
      "name": "minimumUsd",
      "outputs": [
        {
          "internalType": "uint256",
          "name": "",
          "type": "uint256"
        }
      ],
      "stateMutability": "view",
      "type": "function"
    },
    {
      "inputs": [],
      "name": "owner",
      "outputs": [
        {
          "internalType": "address",
          "name": "",
          "type": "address"
        }
      ],
      "stateMutability": "view",
      "type": "function"
    },
    {
      "inputs": [],
      "name": "priceFeed",
      "outputs": [
        {
          "internalType": "contract AggregatorV3Interface",
          "name": "",
          "type": "address"
        }
      ],
      "stateMutability": "view",
      "type": "function"
    },
    {
      "inputs": [],
      "name": "withdraw",
      "outputs": [],
      "stateMutability": "nonpayable",
      "type": "function"
    },
    {
      "stateMutability": "payable",
      "type": "receive"
    }
  ],
  "transactionHash": "0xe32b3d549a1be9be95ab154676a43d2e7ef36560f8019a62912ea767b8ec0732",
  "args": [
    "0x8A753747A1Fa494EC906cE90E9f37563A8AF630e"
  ],
  "numDeployments": 1,
  "solcInputHash": "1424db0ba9b44b20342eb5a277ef84e5",
  "bytecode": "0x60a060405234801561001057600080fd5b50604051610f79380380610f7983398181016040528101906100329190610110565b3373ffffffffffffffffffffffffffffffffffffffff1660808173ffffffffffffffffffffffffffffffffffffffff168152505080600260006101000a81548173ffffffffffffffffffffffffffffffffffffffff021916908373ffffffffffffffffffffffffffffffffffffffff1602179055505061013d565b600080fd5b600073ffffffffffffffffffffffffffffffffffffffff82169050919050565b60006100dd826100b2565b9050919050565b6100ed816100d2565b81146100f857600080fd5b50565b60008151905061010a816100e4565b92915050565b600060208284031215610126576101256100ad565b5b6000610134848285016100fb565b91505092915050565b608051610e1a61015f600039600081816102e101526105610152610e1a6000f3fe6080604052600436106100745760003560e01c8063741bef1a1161004e578063741bef1a1461010c5780638da5cb5b14610137578063b60d428814610162578063dc0d3dff1461016c57610083565b8063098de8201461008d5780633ccfd60b146100b85780633e47d6f3146100cf57610083565b36610083576100816101a9565b005b61008b6101a9565b005b34801561009957600080fd5b506100a26102d2565b6040516100af919061075e565b60405180910390f35b3480156100c457600080fd5b506100cd6102df565b005b3480156100db57600080fd5b506100f660048036038101906100f191906107dc565b610521565b604051610103919061075e565b60405180910390f35b34801561011857600080fd5b50610121610539565b60405161012e9190610868565b60405180910390f35b34801561014357600080fd5b5061014c61055f565b6040516101599190610892565b60405180910390f35b61016a6101a9565b005b34801561017857600080fd5b50610193600480360381019061018e91906108d9565b610583565b6040516101a09190610892565b60405180910390f35b6802b5e3af16b18800006101e8600260009054906101000a900473ffffffffffffffffffffffffffffffffffffffff16346105c290919063ffffffff16565b1015610229576040517f08c379a000000000000000000000000000000000000000000000000000000000815260040161022090610963565b60405180910390fd5b6000339080600181540180825580915050600190039060005260206000200160009091909190916101000a81548173ffffffffffffffffffffffffffffffffffffffff021916908373ffffffffffffffffffffffffffffffffffffffff16021790555034600160003373ffffffffffffffffffffffffffffffffffffffff1673ffffffffffffffffffffffffffffffffffffffff16815260200190815260200160002081905550565b6802b5e3af16b188000081565b7f000000000000000000000000000000000000000000000000000000000000000073ffffffffffffffffffffffffffffffffffffffff163373ffffffffffffffffffffffffffffffffffffffff1614610364576040517f30cd747100000000000000000000000000000000000000000000000000000000815260040160405180910390fd5b60005b60008054905081101561040f57600080828154811061038957610388610983565b5b9060005260206000200160009054906101000a900473ffffffffffffffffffffffffffffffffffffffff1690506000600160008373ffffffffffffffffffffffffffffffffffffffff1673ffffffffffffffffffffffffffffffffffffffff16815260200190815260200160002081905550508080610407906109e1565b915050610367565b50600067ffffffffffffffff81111561042b5761042a610a2a565b5b6040519080825280602002602001820160405280156104595781602001602082028036833780820191505090505b506000908051906020019061046f92919061069e565b5060003373ffffffffffffffffffffffffffffffffffffffff164760405161049690610a8a565b60006040518083038185875af1925050503d80600081146104d3576040519150601f19603f3d011682016040523d82523d6000602084013e6104d8565b606091505b505090508061051c576040517f08c379a000000000000000000000000000000000000000000000000000000000815260040161051390610aeb565b60405180910390fd5b600080fd5b60016020528060005260406000206000915090505481565b600260009054906101000a900473ffffffffffffffffffffffffffffffffffffffff1681565b7f000000000000000000000000000000000000000000000000000000000000000081565b6000818154811061059357600080fd5b906000526020600020016000915054906101000a900473ffffffffffffffffffffffffffffffffffffffff1681565b6000806105ce836105fe565b90506000670de0b6b3a764000085836105e79190610b0b565b6105f19190610b94565b9050809250505092915050565b6000808273ffffffffffffffffffffffffffffffffffffffff1663feaf968c6040518163ffffffff1660e01b815260040160a06040518083038186803b15801561064757600080fd5b505afa15801561065b573d6000803e3d6000fd5b505050506040513d601f19601f8201168201806040525081019061067f9190610c52565b5050509150506402540be400816106969190610ccd565b915050919050565b828054828255906000526020600020908101928215610717579160200282015b828111156107165782518260006101000a81548173ffffffffffffffffffffffffffffffffffffffff021916908373ffffffffffffffffffffffffffffffffffffffff160217905550916020019190600101906106be565b5b5090506107249190610728565b5090565b5b80821115610741576000816000905550600101610729565b5090565b6000819050919050565b61075881610745565b82525050565b6000602082019050610773600083018461074f565b92915050565b600080fd5b600073ffffffffffffffffffffffffffffffffffffffff82169050919050565b60006107a98261077e565b9050919050565b6107b98161079e565b81146107c457600080fd5b50565b6000813590506107d6816107b0565b92915050565b6000602082840312156107f2576107f1610779565b5b6000610800848285016107c7565b91505092915050565b6000819050919050565b600061082e6108296108248461077e565b610809565b61077e565b9050919050565b600061084082610813565b9050919050565b600061085282610835565b9050919050565b61086281610847565b82525050565b600060208201905061087d6000830184610859565b92915050565b61088c8161079e565b82525050565b60006020820190506108a76000830184610883565b92915050565b6108b681610745565b81146108c157600080fd5b50565b6000813590506108d3816108ad565b92915050565b6000602082840312156108ef576108ee610779565b5b60006108fd848285016108c4565b91505092915050565b600082825260208201905092915050565b7f6e6965207779736c616e6f203120657468657261000000000000000000000000600082015250565b600061094d601483610906565b915061095882610917565b602082019050919050565b6000602082019050818103600083015261097c81610940565b9050919050565b7f4e487b7100000000000000000000000000000000000000000000000000000000600052603260045260246000fd5b7f4e487b7100000000000000000000000000000000000000000000000000000000600052601160045260246000fd5b60006109ec82610745565b91507fffffffffffffffffffffffffffffffffffffffffffffffffffffffffffffffff821415610a1f57610a1e6109b2565b5b600182019050919050565b7f4e487b7100000000000000000000000000000000000000000000000000000000600052604160045260246000fd5b600081905092915050565b50565b6000610a74600083610a59565b9150610a7f82610a64565b600082019050919050565b6000610a9582610a67565b9150819050919050565b7f43616c6c206661696c6564000000000000000000000000000000000000000000600082015250565b6000610ad5600b83610906565b9150610ae082610a9f565b602082019050919050565b60006020820190508181036000830152610b0481610ac8565b9050919050565b6000610b1682610745565b9150610b2183610745565b9250817fffffffffffffffffffffffffffffffffffffffffffffffffffffffffffffffff0483118215151615610b5a57610b596109b2565b5b828202905092915050565b7f4e487b7100000000000000000000000000000000000000000000000000000000600052601260045260246000fd5b6000610b9f82610745565b9150610baa83610745565b925082610bba57610bb9610b65565b5b828204905092915050565b600069ffffffffffffffffffff82169050919050565b610be481610bc5565b8114610bef57600080fd5b50565b600081519050610c0181610bdb565b92915050565b6000819050919050565b610c1a81610c07565b8114610c2557600080fd5b50565b600081519050610c3781610c11565b92915050565b600081519050610c4c816108ad565b92915050565b600080600080600060a08688031215610c6e57610c6d610779565b5b6000610c7c88828901610bf2565b9550506020610c8d88828901610c28565b9450506040610c9e88828901610c3d565b9350506060610caf88828901610c3d565b9250506080610cc088828901610bf2565b9150509295509295909350565b6000610cd882610c07565b9150610ce383610c07565b9250827f7fffffffffffffffffffffffffffffffffffffffffffffffffffffffffffffff0482116000841360008413161615610d2257610d216109b2565b5b817f80000000000000000000000000000000000000000000000000000000000000000583126000841260008413161615610d5f57610d5e6109b2565b5b827f80000000000000000000000000000000000000000000000000000000000000000582126000841360008412161615610d9c57610d9b6109b2565b5b827f7fffffffffffffffffffffffffffffffffffffffffffffffffffffffffffffff0582126000841260008412161615610dd957610dd86109b2565b5b82820290509291505056fea26469706673582212207f6cf82ccd662aa8a3d14b39cd11919831f589adacb27b34f0c98e8680dbd2c564736f6c63430008090033",
  "devdoc": {
    "kind": "dev",
    "methods": {},
    "version": 1
  },
  "userdoc": {
    "kind": "user",
    "methods": {},
    "version": 1
  },
  "storageLayout": {
    "storage": [
      {
        "astId": 61,
        "contract": "contracts/FundMe.sol:FundMe",
        "label": "funders",
        "offset": 0,
        "slot": "0",
        "type": "t_array(t_address)dyn_storage"
      },
      {
        "astId": 65,
        "contract": "contracts/FundMe.sol:FundMe",
        "label": "addressToAmountFunded",
        "offset": 0,
        "slot": "1",
        "type": "t_mapping(t_address,t_uint256)"
      },
      {
        "astId": 68,
        "contract": "contracts/FundMe.sol:FundMe",
        "label": "priceFeed",
        "offset": 0,
        "slot": "2",
        "type": "t_contract(AggregatorV3Interface)45"
      }
    ],
    "types": {
      "t_address": {
        "encoding": "inplace",
        "label": "address",
        "numberOfBytes": "20"
      },
      "t_array(t_address)dyn_storage": {
        "base": "t_address",
        "encoding": "dynamic_array",
        "label": "address[]",
        "numberOfBytes": "32"
      },
      "t_contract(AggregatorV3Interface)45": {
        "encoding": "inplace",
        "label": "contract AggregatorV3Interface",
        "numberOfBytes": "20"
      },
      "t_mapping(t_address,t_uint256)": {
        "encoding": "mapping",
        "key": "t_address",
        "label": "mapping(address => uint256)",
        "numberOfBytes": "32",
        "value": "t_uint256"
      },
      "t_uint256": {
        "encoding": "inplace",
        "label": "uint256",
        "numberOfBytes": "32"
      }
    }
  }
}